:020000040800F2
:10000000F00900200101000845640008854200084D
:1000100041640008B10700082970000800000000D2
:10002000000000000000000000000000D165000892
:10003000F907000800000000916500082966000823
:100040001B0100081B0100081B0100081B01000820
:100050001B0100081B0100081B0100081B01000810
:100060001B0100081B0100081B0100081B01000800
:100070001B0100081B0100081B0100081B010008F0
:100080001B0100081B0100081B0100081B010008E0
:100090001B0100081B0100081B0100081B010008D0
:1000A0001B0100081B0100081B0100081B010008C0
:1000B0001B0100081B010008A16600089942000806
:1000C00089420008B9420008A94200081B01000843
:1000D0001B01000809700008197000081B010008C6
:1000E0001B0100081B0100081B010008DFF80CD0F1
:1000F00000F00AFB00480047598E0008F009002074
:100100000648804706480047FEE7FEE7FEE7FEE7B1
:10011000FEE7FEE7FEE7FEE7FEE7FEE79D66000876
:10012000ED00000840EA01039B0703D009E008C97D
:10013000121F08C0042AFAD203E011F8013B00F8AC
:10014000013B521EF9D27047D2B201E000F8012BF8
:10015000491EFBD270470022F6E710B513460A4647
:1001600004461946FFF7F0FF204610BDF0B480EAC0
:100170000102D40F4200B2EB410F02D20246084600
:1001800011464A0042D0C30DDDB2C1F3C752AD1AC9
:10019000202D35DAC1F3160141F4000204B15242B8
:1001A000C5F1200602FA06F12A411044B3EBD05FF4
:1001B00023D0C4B1012DA0EBC35009DCF0BC4FF03B
:1001C000004202EAC352DBB200F5000000F010BAB0
:1001D000400000F1807000EBC350A0F1807040EA55
:1001E000D170490009E0490841EAC071A0EBC35051
:1001F00000F50000400800EBC350F0BC00F0EFB980
:100200006142012202EB4101001BF6E7F0BC70479E
:1002100081F00041AAE780F00040A7E780EA0102F0
:1002200010B502F00043400022D04A001FD0010E5A
:1002300001EB1261C0F35600C2F3560240F4000015
:1002400042F40002A0FB022000047F39140400D015
:10025000401C50EA124001D44000491EC2B20C06B4
:1002600004EBD010401C4008802A02D003E000209C
:1002700010BD20F00100002900DA0020184310BD55
:1002800030B480EA010202F0004530F0004221F073
:10029000004013D090B1C30DD40DC2F31601C0F3CA
:1002A0001600E41A41F4000140F400027D3491424A
:1002B00001D3641C00E04900002C02DA30BC0020AD
:1002C00070474FF400000023914201D3891A034381
:1002D00040084FEA4101F7D151B1914202D14FF0AC
:1002E000004105E002D24FF0010101E06FF0010191
:1002F00003EBC450284430BC00F071B92DE9FE4F27
:10030000804681EA0300C00F0C46009021F00041B6
:1003100023F00045B8EB0200A94105D24046214632
:1003200090461C460B46024623F00040104347D03F
:10033000270DC7F30A00C3F30A510290401A019037
:1003400040286BDAC3F3130040F4801B00989246F8
:1003500020B10023D2EB030A63EB0B0B0198594643
:10036000C0F14002504600F019F906460D465046CD
:100370005946019A00F021F910EB08006141002470
:1003800087EA115284EAE7731A4340D0009A62B3B5
:10039000019A012A4FEA075215DC001B61EB0201AA
:1003A0004FF0004202EA0752CDE90042001C41F53D
:1003B000801132462B4600F058F903B0BDE8F08FAB
:1003C00040462146F9E7001B61EB0201001C41F5A4
:1003D000801300185B412018A2F5001747EB0301BA
:1003E00040EAD570B6196D4111E06D084FEA360646
:1003F00045EAC0754FEA0752001B61EB0201001C81
:1004000041F5801149084FEA300000195141324648
:100410002B4603B0BDE8F04F00F018B90098012258
:1004200040000023D0EB020263EBE073009821460A
:100430004FEAE074B8EB000061EB0401E9E783F0F8
:1004400000435BE781F0004158E7002801DBC0F181
:100450000040002901DBC1F10041814201D80120A7
:10046000704700207047002801DBC0F100400029E0
:1004700001DBC1F10041814201D20120704700201F
:100480007047002801DBC0F10040002901DBC1F109
:100490000041814201D301207047002070470028AD
:1004A00001DBC0F10040002901DBC1F100418142C4
:1004B00001D1012070470020704730B5041E71F152
:1004C000000404DB4FF00044404264EB0101141EC1
:1004D00073F1000405DB1C464FF00043524263EB0E
:1004E0000403801A994101D3012030BD002030BDA2
:1004F000C10F80EAE0700844CA079623002100F08B
:1005000077B896230022114600F072B800F000423E
:1005100020F00040C10DC0F3160040F400007F2918
:1005200001DA00207047962903DCC1F19601C8402A
:1005300001E096398840002AF4D04042704700F02C
:10054000004230F000400AD0C10D01F56071C0F3E7
:10055000160042EA0151C2084007114370470020CB
:100560000146704701F0004330B421F0004150EAE9
:10057000010206D00A0DA2F56072C1F31301002A30
:1005800002DC30BC00207047440F44EAC104C100C3
:10059000E01830BC00EBC25000F021B8202A04DB88
:1005A000203A00FA02F1002070479140C2F1200386
:1005B00020FA03F3194390407047202A06DBCB173B
:1005C000203A41FA02F043EAE07306E041FA02F30E
:1005D000D040C2F1200291400843194670470029DB
:1005E000A8BF7047401C490008BF20F001007047B9
:1005F00010B4B0FA80FC00FA0CF050EA010404BF19
:1006000010BC704749B1CCF1200421FA04F411FA6E
:100610000CF118BF012121430843A3EB0C01CB1DB2
:100620004FEA00614FEA102042BF002010BC704723
:1006300000EBC35010440029A4BF10BC7047401CFD
:10064000490008BF20F0010010BC704710B5141E0F
:1006500073F1000408DA401C41F1000192185B417B
:100660001A4301D120F0010010BD2DE9F04D924652
:100670009B4611B1B1FA81F202E0B0FA80F2203269
:100680009046FFF78BFF04460F4640EA0A0041EA16
:100690000B0153465A46084313D0114653EA010052
:1006A00019D0C8F14002504600F046F805460E4603
:1006B000504659464246FFF771FF084305D00120D6
:1006C00004E020463946BDE8F08D0020054346EAA7
:1006D000E0762C4337430A986305E40AA0EB080050
:1006E0000022FD0A44EA47540A3002D500200146A0
:1006F000E9E7010510196941DDE90845001969417B
:10070000BDE8F04DA2E700001CB50948009009487B
:1007100001900546009C06E0E06840F0010394E883
:10072000070098471034AC42F6D3FFF7E3FC000013
:100730006CA000088CA00008202A04DB203A21FAD3
:1007400002F00021704721FA02F3D040C2F12002EA
:10075000914008431946704770B58C1810F8015B3A
:1007600015F0070301D110F8013B2A1106D110F84A
:10077000012B03E010F8016B01F8016B5B1EF9D14E
:100780002B0705D40023521E0DD401F8013BFAE7D4
:1007900010F8013BCB1A921C03E013F8015B01F83F
:1007A000015B521EF9D5A142D8D3002070BD0000D4
:1007B000FFE7FEE783B0029000208DF8070000906D
:1007C000FFE7009809280DDCFFE702980099415CDB
:1007D0009DF8070008448DF80700FFE700980130F6
:1007E0000090EEE79DF807000299897A401AB0FA66
:1007F00080F0400903B070477047000081B0EFF30C
:10080000108072B60090FFE7FEE7000083B0019011
:1008100000208DF80300019890F8210002280DD0E7
:10082000FFE7019904208863FFE70199002081F820
:100830002000FFE701208DF80B0021E001980168FE
:10084000086820F00E00086001980168086820F030
:10085000010008600198C16B026C01209040486063
:10086000FFE70199012081F82100FFE701990020AD
:1008700081F82000FFE79DF803008DF80B00FFE7EB
:100880009DF80B0003B0704780B588B0079000203A
:100890008DF81B00079890F82100022807D0FFE789
:1008A00007990420886301208DF81B0076E00798E3
:1008B0000168086820F00E00086007980168086861
:1008C00020F001000860079800680821C4F20201C6
:1008D000884203D1FFE70120059047E007980068B0
:1008E0001C21C4F20201884203D1FFE710200490CA
:1008F00039E0079800683021C4F20201884204D12F
:10090000FFE74FF4807003902AE0079800684421C5
:10091000C4F20201884204D1FFE74FF480500290F4
:100920001BE0079800685821C4F20201884204D1F4
:10093000FFE74FF4803001900CE0079801686C22CB
:10094000C4F202024FF08070914208BF4FF4801051
:100950000190FFE701980290FFE702980390FFE7FC
:1009600003980490FFE704980590FFE70598042199
:10097000C4F2020108600799012081F82100FFE715
:100980000799002081F82000FFE70798406B20B10D
:10099000FFE70798416B8847FFE7FFE79DF81B00DB
:1009A00008B080BD81B00090009890F8210001B09F
:1009B0007047000080B584B0039000F0DDF902902C
:1009C000039801900198013048B1FFE740F2E2102E
:1009D000C2F200000178019808440190FFE7FFE7A8
:1009E00000F0CAF90299401A0199884201D2FFE742
:1009F000F6E704B080BD000090B00F900E9100208B
:100A00000D900990FFE70E9800680D99C8400028E6
:100A100000F07F81FFE70D99012088400C900E982F
:100A200000680C9908400B900B980C99884240F094
:100A30006C81FFE70E9840680590002851D0FFE7D1
:100A4000059801283AD0FFE7059802283FD0FFE734
:100A5000059803285FD0FFE70598112832D0FFE7FB
:100A60000598122838D0FFE705980021C1F211013E
:100A7000884236D0FFE705980021C1F21201884272
:100A80002FD0FFE705980021C1F22101884228D02C
:100A9000FFE705980021C1F22201884221D0FFE73B
:100AA00005980021C1F2310188421AD0FFE705986C
:100AB0000021C1F23201884213D02FE00E98C068A5
:100AC00009902CE00E98C0680430099027E00E9839
:100AD000C0680830099022E00E98C0680C30099078
:100AE0001DE00E98806818B9FFE70420099011E016
:100AF0000E988068012806D1FFE7082009900C981D
:100B00000F99086105E0082009900C980F99486139
:100B1000FFE7FFE703E00020099000E0FFE70B9804
:100B2000FF2803D8FFE70F98049003E00F980430E4
:100B30000490FFE7049808900B98FF2804D8FFE77B
:100B40000D988000039006E00D996FF01F0000EBF8
:100B500081000390FFE70398079008980068079AC0
:100B60000F219140884309999140084308990860F2
:100B70000E98C079C006002840F1C680FFE7FFE765
:100B800041F21800C4F20200016841F00101016065
:100B9000006800F0010006900698FFE70D9820F02D
:100BA00003000821C4F2010140580A900D9800F09A
:100BB000030081000F2000FA01F10A9888430A908F
:100BC0000F9840F60001C4F20101884203D1FFE70B
:100BD0000020029026E00F9840F60041C4F2010187
:100BE000884203D1FFE70120019018E00F9841F2FD
:100BF0000001C4F20101884203D1FFE70220009006
:100C00000AE00F9941F20042C4F20102042091422D
:100C100008BF03200090FFE700980190FFE70198CC
:100C20000290FFE702980D9901F00301890000FA94
:100C300001F10A9808430A900A980D9921F00301DE
:100C40000822C4F2010288500E988079C00600285C
:100C500009D5FFE70B9A40F20841C4F20101086888
:100C60001043086008E00B9A40F20841C4F2010109
:100C7000086890430860FFE70E9880798006002896
:100C800009D5FFE70B9A40F20C41C4F20101086854
:100C90001043086008E00B9A40F20C41C4F20101D5
:100CA000086890430860FFE70E9880798007002865
:100CB00009D5FFE70B9A40F20441C4F2010108682C
:100CC0001043086008E00B9A40F20441C4F20101AD
:100CD000086890430860FFE70E988079C00748B124
:100CE000FFE70B9A40F20041C4F20101086810438B
:100CF000086008E00B9A40F20041C4F20101086864
:100D000090430860FFE7FFE7FFE70D9801300D9083
:100D100079E610B07047000082B00190ADF8021083
:100D200001988068BDF80210084204D0FFE7012056
:100D30008DF8010003E000208DF80100FFE79DF829
:100D4000010002B07047000082B00190ADF80210BF
:100D50008DF801209DF8010028B1FFE7BDF80200E1
:100D60000199086105E0BDF80200000401990861DD
:100D7000FFE702B07047000040F2E850C2F2000006
:100D80000068704781B0009001B0704782B0019058
:100D90008DF80310ADF8002002B0704780B58AB01E
:100DA00009900998006840690490099800684068B3
:100DB000039000200290099890F83E008DF80700FB
:100DC0009DF81100C007A8B1FFE79DF80D00C0070E
:100DD00080B1FFE7029840F0010002900998016895
:100DE0006FF48070486109980168086840F4004019
:100DF0000860FFE79DF8110000F002010020B0EB51
:100E0000510F0FD0FFE79DF80D00C00750B1FFE76D
:100E1000029840F002000290099801686FF4007097
:100E20004861FFE79DF8110000F004010020B0EBDD
:100E3000910F50D0FFE79DF80D00C00700284AD061
:100E4000FFE79DF807008DF823000998408D079073
:100E5000099890F83D008DF81B000998006B0590EB
:100E60009DF8230020281AD1FFE70798B8B9FFE7BB
:100E70009DF81B0021280ED0FFE79DF81B002928B4
:100E800009D0FFE79DF81B00282808D1FFE7059847
:100E9000212804D1FFE7099804F05AFC1AE00998C8
:100EA00001686FF480604861029840F0040002908D
:100EB0009DF80700102805D0FFE79DF8070040289F
:100EC00007D1FFE709980168086840F400700860DE
:100ED000FFE7FFE7FFE79DF8110000F008010020A1
:100EE000B0EBD10F0FD0FFE79DF80D00C00750B158
:100EF000FFE7029840F008000290099801686FF43B
:100F000000604861FFE7029848B1FFE7029A09993B
:100F1000086C10430864099803F0AEFAFFE70AB0C2
:100F200080BD000080B588B007900020059007982C
:100F30000068406804900798C06A0390079890F88A
:100F40003E008DF80B00079890F83D008DF80A00E0
:100F50009DF80B00102806D0FFE79DF80B004028F5
:100F600040F00081FFE707980068806905900798C6
:100F70000068406906900698C007A0B9FFE703998A
:100F80000120B1F52A0F019008D0FFE7039800F186
:100F9000AC40B0FA80F040090190FFE70198C0072B
:100FA00008B1FFE7A1E10698C00780B1FFE79DF80F
:100FB000110000F002010020B0EB510F07D0FFE755
:100FC000079803F081F9079804F032F8C9E09DF81A
:100FD000180000F008010020B0EBD10F0DD0FFE7A2
:100FE0009DF8110000F002010020B0EB510F04D079
:100FF000FFE7079803F04CFEB2E09DF8180000F000
:1010000002010020B0EB510F0DD0FFE79DF8110059
:1010100000F002010020B0EB510F04D0FFE7079869
:1010200003F05AFE9BE09DF8140000F0040100203C
:10103000B0EB910F50D0FFE707980068406800F4CC
:101040000060B0F5006F46D0FFE79DF81810002053
:10105000B0EBD11F16D0FFE79DF8110000F004019E
:101060000020B0EB910F0DD0FFE79DF8180000F0C5
:1010700004010020B0EB910F04D1FFE7079803F0C3
:1010800067FD27E09DF8180000F004010020B0EB98
:10109000910F1DD0FFE79DF8110000F00201002024
:1010A000B0EB510F14D0FFE79DF80A00212804D1BE
:1010B000FFE7079803F0DCFC09E09DF80B004028EF
:1010C00004D1FFE7079804F02BF8FFE7FFE700E003
:1010D000FFE7FFE7FFE741E007980068406800F49A
:1010E0000060B0F5006F38D0FFE79DF8180000F001
:1010F00040010020B0EB911F16D0FFE79DF81100D2
:1011000000F004010020B0EB910F0DD0FFE79DF837
:10111000180000F004010020B0EB910F04D1FFE7AC
:10112000079803F0EFFB17E09DF8180000F00401AA
:101130000020B0EB910F0DD0FFE79DF8110000F0FB
:1011400002010020B0EB510F04D0FFE7079803F035
:1011500003FB00E0FFE7FFE7FFE7FFE7FFE7FFE74D
:10116000FFE7C2E00798006C28B1FFE70798006826
:101170004069069008E00798006880690590079824
:10118000006840690690FFE79DF8180000F0020132
:101190000020B0EB510F17D0FFE79DF8110000F0D1
:1011A00002010020B0EB510F0ED0FFE70798006C52
:1011B00028B1FFE70798006880690590FFE7079866
:1011C000059904F06DFA8FE09DF8180000F0100109
:1011D0000020B0EB111F0DD0FFE79DF8110000F0CB
:1011E00002010020B0EB510F04D0FFE7079804F094
:1011F00021FB78E09DF80A00212805D0FFE79DF843
:101200000A00292836D1FFE79DF818100020B0EB1E
:10121000D11F16D0FFE79DF8110000F00401002057
:10122000B0EB910F0DD0FFE79DF8180000F004011E
:101230000020B0EB910F04D1FFE7079804F0FAF912
:1012400017E09DF8180000F004010020B0EB910FAA
:101250000DD0FFE79DF8110000F002010020B0EB77
:10126000510F04D0FFE7079804F0CEF900E0FFE744
:10127000FFE737E09DF8180000F040010020B0EBD8
:10128000911F16D0FFE79DF8110000F00401002027
:10129000B0EB910F0DD0FFE79DF8180000F00401AE
:1012A0000020B0EB910F04D1FFE7079804F074F928
:1012B00017E09DF8180000F004010020B0EB910F3A
:1012C0000DD0FFE79DF8110000F002010020B0EB07
:1012D000510F04D0FFE7079804F046F900E0FFE75C
:1012E000FFE7FFE7FFE7FFE7FFE708B080BD00008B
:1012F00081B0009001B0704780B58EB00C900C9812
:1013000020B9FFE701208DF8370043E10C9890F8F1
:101310003D0040B9FFE70C99002081F83C000C9893
:1013200000F0CCFCFFE70C99242081F83D000C98DC
:101330000168086820F0010008600C9801680868DE
:1013400040F4004008600C980168086820F40040F0
:10135000086000F053FF0A900C98406848F2A061C2
:10136000C0F2010188420BD8FFE70A9948F2804297
:10137000C0F21E020020914238BF012009900AE00D
:101380000A9940F60012C0F23D020020914238BF97
:1013900001200990FFE70998012804D1FFE7012007
:1013A0008DF83700F6E00A984DF68361C4F21B31E0
:1013B000A0FB0110800C0B900C980068406820F096
:1013C0003F000B9908430C99096848600C98006825
:1013D000006A20F03F0008900C98406848F2A06135
:1013E000C0F20101884204D8FFE70B980130079052
:1013F0000EE00B984FF49671484344F6D351C1F276
:101400006201A0FB0101012000EB91100790FFE7B2
:101410000898079908430C99096808620C980068B5
:10142000C0694CF6FF71884306900C98406848F2FA
:10143000A061C0F2010188421FD8FFE70A98013875
:101440000C9949684900B0FBF1F001306FF31F308F
:10145000032803D8FFE7042005900BE00A98013821
:101460000C9949684900B0FBF1F001306FF31F306F
:101470000590FFE7059804904CE00C98806868B9E7
:10148000FFE70A9801380C99496801EB4101B0FB6C
:10149000F1F001306FF31F3003900DE00A9801382E
:1014A0000C99496819225143B0FBF1F00130042135
:1014B00061F31F300390FFE70398000518B9FFE7B9
:1014C0000120029023E00C98806868B9FFE70A9831
:1014D00001380C99496801EB4101B0FBF1F0013092
:1014E0006FF31F3001900DE00A9801380C9949689C
:1014F00019225143B0FBF1F00130042161F31F3098
:101500000190FFE7019840F400400290FFE7029845
:101510000490FFE70698049908430C990968C8618C
:101520000C980068006820F0C0000C9B1968DA690C
:101530001B6A1A43104308600C980068806848F2E0
:10154000FF3188430C9A1168D36812691A4310431B
:1015500088600C980068C06820F0FF000C9B196838
:101560005A699B691A431043C8600C98016808685F
:1015700040F0010008600C99002008640C9A2021BA
:1015800082F83D100C9908630C9981F83E008DF8A3
:101590003700FFE79DF837000EB080BD81B00090A6
:1015A00001B0704781B0009001B0704781B00090E9
:1015B00001B0704781B0009001B0704781B00090D9
:1015C00001B0704710B590B0844614981398DDF8B8
:1015D00048E0CDF828C0ADF82610ADF82420ADF8CD
:1015E0002230ADF8200000200790FFF7C5FB0690E1
:1015F0000A9890F83D00202840F04D82FFE70A98B5
:1016000006996A4611600221C0F2100101221923D5
:1016100004F08CFA20B1FFE702208DF82F003EE2A3
:10162000FFE70A9890F83C00012804D1FFE7022068
:101630008DF82F0033E20A99012081F83C00FFE782
:10164000FFE70A980068006800F00100012807D051
:10165000FFE70A980168086840F001000860FFE7AA
:101660000A980168086820F4006008600A9922203E
:1016700081F83D000A99402081F83E000A99002037
:10168000086412980A994862BDF820000A994885B2
:101690000A98408D0A9908850A990020CFF6FF70B4
:1016A000C8620A98BDF82610BDF82420BDF8223083
:1016B000DDF850C0069CEE46CEF80440CEF800C0DF
:1016C00003F0C2FD20B1FFE701208DF82F00E6E115
:1016D0000A98008DA0B9FFE7FFE7002005900A985F
:1016E0000068406905900A9800688069059005982F
:1016F000FFE70A980168086840F4007008605DE040
:101700000A98008D01281FD1FFE70A980168086830
:1017100020F480600860EFF3108072B60F90FFE74E
:10172000002004900A980068406904900A980068B4
:10173000806904900498FFE70A980168086840F4FB
:101740000070086062B638E00A98008D02281FD148
:10175000FFE70A980168086840F400600860EFF34A
:10176000108072B60E90FFE7002003900A98006880
:10177000406903900A980068806903900398FFE726
:101780000A980168086820F48060086062B613E077
:101790000A980168086840F480600860FFE700204C
:1017A00002900A980068406902900A98006880696F
:1017B00002900298FFE7FFE7FFE7FFE7FFE70A98DD
:1017C000008D002800F05581FFE70A98008D03285E
:1017D00000F20781FFE70A98008D01281ED1FFE77C
:1017E0000A981499069A04F0CFFA20B1FFE7012075
:1017F0008DF82F0053E10A98006800690A99496A38
:1018000008700A99486A013048620A99088D0138BF
:1018100008850A99488D01384885E1E00A98008DCD
:10182000022841D1FFE70A98149B06996A46116085
:101830000421C0F20101002204F078F920B1FFE791
:1018400001208DF82F002AE1EFF3108072B60D9081
:101850000A980168086840F4007008600A980068F7
:1018600000690A99496A08700A99486A0130486211
:101870000A99088D013808850A99488D01384885EC
:1018800062B60A98006800690A99496A08700A995C
:10189000486A013048620A99088D013808850A991A
:1018A000488D013848859AE00A98149B06996A4643
:1018B00011600421C0F20101002204F037F920B1C7
:1018C000FFE701208DF82F00E9E00A980168086819
:1018D00020F480600860EFF3108072B60C900A98D4
:1018E000006800690A99496A08700A99486A0130D3
:1018F00048620A99088D013808850A99488D01388F
:10190000488540F20400C2F20000006848F21F510E
:10191000C5F2EB11A0FB0110C00844F6D351C1F28F
:101920006201A0FB01108009232148430790FFE7D3
:101930000798013807900798D0B9FFE70A99002067
:1019400008630A9A202182F83D100A9981F83E0026
:101950000A99086C40F02000086462B6FFE70A9913
:10196000002081F83C00FFE701208DF82F0096E071
:10197000FFE70A980068406900F004010020B0EB1E
:10198000910FD5D0FFE70A980168086840F400700D
:1019900008600A98006800690A99496A08700A99FB
:1019A000486A013048620A99088D013808850A9909
:1019B000488D0138488562B60A98006800690A991E
:1019C000496A08700A99486A013048620A99088D84
:1019D000013808850A99488D01384885FFE7FFE7F7
:1019E00046E00A981499069A04F0CEF920B1FFE770
:1019F00001208DF82F0052E00A98006800690A99CA
:101A0000496A08700A99486A013048620A99088D43
:101A1000013808850A99488D013848850A98006878
:101A2000406900F004010120B0EB910F1FD1FFE7E6
:101A30000A98008D032807D1FFE70A980168086813
:101A400020F480600860FFE70A98006800690A993E
:101A5000496A08700A99486A013048620A99088DF3
:101A6000013808850A99488D01384885FFE7FFE766
:101A7000A5E60A99202081F83D000A99002081F806
:101A80003E00FFE70A99002081F83C00FFE70020B4
:101A90008DF82F0003E002208DF82F00FFE79DF85E
:101AA0002F0010B010BD000010B588B084460C980F
:101AB0000B98DDF828E0CDF818C0ADF81610ADF899
:101AC0001420ADF81230ADF81000FFF755F903906F
:101AD000069890F83D00202840F0E880FFE706983F
:101AE00003996A4611600221C0F2100101221923F4
:101AF00004F01CF820B1FFE702208DF81F00D9E0A8
:101B0000FFE7069890F83C00012804D1FFE7022087
:101B10008DF81F00CEE00699012081F83C00FFE718
:101B2000FFE706980068006800F00100012807D070
:101B3000FFE706980168086840F001000860FFE7C9
:101B400006980168086820F4006008600699212062
:101B500081F83D000699402081F83E00069900205A
:101B600008640A9806994862BDF8100006994885ED
:101B70000698408D0699088506990020CFF6FF70DB
:101B8000C8620698BDF81610BDF81420BDF81230D2
:101B9000DDF830C0039CEE46CEF80440CEF800C01D
:101BA00003F044FC20B1FFE701208DF81F0081E025
:101BB000FFE70698008D002849D0FFE706980C99AA
:101BC000039A04F08BF980B1FFE70698006C0428B3
:101BD00007D1FFE706980168086840F400700860C4
:101BE000FFE701208DF81F0064E006980168406A55
:101BF000007808610699486A013048620699088DA4
:101C0000013808850699488D01384885069800688E
:101C1000406900F004010120B0EB910F16D1FFE7FD
:101C20000698008D90B1FFE706980168406A007839
:101C300008610699486A013048620699088D0138A2
:101C400008850699488D01384885FFE7B1E7069871
:101C50000C99039A03F014FF80B1FFE70698006C1B
:101C6000042807D1FFE706980168086840F400706F
:101C70000860FFE701208DF81F001BE0069801684F
:101C8000086840F4007008600699202081F83D0043
:101C90000699002081F83E00FFE70699002081F8B0
:101CA0003C00FFE700208DF81F0003E002208DF8C4
:101CB0001F00FFE79DF81F0008B010BD80B590B071
:101CC0000F9000200E900D900C900B900F980068D4
:101CD00045F20041C4F20001884251D1FFE7FFE71D
:101CE00041F21800C4F20200016841F008010160ED
:101CF000006800F008000A900A98FFE74FF440706F
:101D00000B9012200C9003200E9040F60040C4F27D
:101D100001000BA9FEF770FEFFE70421C4F20101E8
:101D200008680990099840F0E0600990099840F02F
:101D30000200099009980860FFE7FFE741F21C00E4
:101D4000C4F20200016841F400110160006800F46F
:101D5000001008900898FFE71F20039000220492CB
:101D6000114600F0F7F8039800F0EAF8049A2020F2
:101D70000590114600F0EEF8059800F0E1F849E012
:101D80000F98006845F60001C4F20001884240D176
:101D9000FFE7FFE741F21800C4F20200016841F0DA
:101DA00008010160006800F0080007900798FFE74D
:101DB0004FF440600B9012200C9003200E9040F6E0
:101DC0000040C4F201000BA9FEF716FEFFE741F246
:101DD0001C00C4F20200016841F480010160006847
:101DE00000F4800006900698FFE721200090002272
:101DF0000192114600F0AEF8009800F0A1F8019AA7
:101E000022200290114600F0A5F8029800F098F800
:101E1000FFE7FFE710B080BD81B0009001B07047D0
:101E200081B0009001B0704740F2E210C2F20000B1
:101E3000027840F2E851C2F20001086810440860DC
:101E40007047000080B542F20001C4F20201086848
:101E500040F010000860032000F096F80F2000F01A
:101E600005F800F03BF8002080BD000080B582B08E
:101E7000009040F20400C2F20000006840F2E2115B
:101E8000C2F200010A784FF47A71B1FBF2F1B0FBB3
:101E9000F1F000F073FD20B1FFE701208DF807009D
:101EA00018E000980F280DD8FFE700994FF0FF3099
:101EB000002200F04FF8009840F2E411C2F2000155
:101EC000086003E001208DF8070003E000208DF892
:101ED0000700FFE79DF8070002B080BD83B0FFE771
:101EE00041F21800C4F20200016841F001010160F2
:101EF000006800F0010002900298FFE7FFE741F25E
:101F00001C00C4F20200016841F0805101600068C9
:101F100000F0805001900198FFE7FFE70421C4F230
:101F2000010108680090009820F0E060009000989F
:101F300040F00070009000980860FFE703B0704721
:101F400080B582B08DF807009DF9070005F06EF8A6
:101F500002B080BD80B586B08DF817000491039261
:101F60000020029005F07AF802909DF91700019088
:101F700002980499039A04F067FA0146019805F063
:101F800075F806B080BD000080B582B00190019860
:101F900005F08EF802B080BD80B584B0029001914A
:101FA000029820B9FFE701208DF80F001BE101988E
:101FB00042F20001C4F20201096801F007018842FF
:101FC00016D9FFE742F20000C4F20200016821F0D6
:101FD0000701019A11430160006800F007000199B0
:101FE000884204D0FFE701208DF80F00FBE0FFE7F7
:101FF00002980078800700282AD5FFE70298007829
:102000004007002809D5FFE741F20401C4F20201AC
:10201000086840F4E0600860FFE702980078000775
:10202000002809D5FFE741F20401C4F20201086863
:1020300040F460500860FFE741F20401C4F202017D
:10204000086820F0F000029A926810430860FFE7E9
:1020500002980078C007002860D0FFE70298406827
:1020600001280ED1FFE741F20000C4F2020000682F
:102070008003002804D4FFE701208DF80F00B2E0B0
:1020800021E00298406802280ED1FFE741F20000EB
:10209000C4F2020000688001002804D4FFE7012098
:1020A0008DF80F009FE00DE041F20000C4F2020045
:1020B00000688007002804D4FFE701208DF80F0096
:1020C00091E0FFE7FFE741F20401C4F20201086872
:1020D00020F00300029A526810430860FEF74CFE9D
:1020E0000090FFE741F20400C4F20200006800F033
:1020F0000C0002994968B0EB810F0ED0FFE7FEF7A4
:102100003BFE0099401A41F28931884204D3FFE72F
:1021100003208DF80F0066E0E4E7FFE7019842F244
:102120000001C4F20201096801F00701884216D2D9
:10213000FFE742F20000C4F20200016821F007014B
:10214000019A11430160006800F00700019988427C
:1021500004D0FFE701208DF80F0044E0FFE702986C
:102160000078400700280CD5FFE741F20401C4F2D3
:102170000201086820F4E060029AD2681043086007
:10218000FFE702980078000700280DD5FFE741F22D
:102190000401C4F20201086820F46050029A126936
:1021A00040EAC2000860FFE700F04CF841F2040189
:1021B000C4F202010968C9B20A094AF24201C0F632
:1021C0000001895CC84040F20401C2F200010860CD
:1021D00040F2E410C2F200000068FFF747FE002062
:1021E0008DF80F00FFE79DF80F0004B080BD0000E0
:1021F00040F20400C2F200000068704780B5FFF7AB
:10220000F7FF41F20401C4F202010968C1F302229E
:102210004AF25201C0F60001895CC84080BD00004E
:1022200080B5FFF7E5FF41F20401C4F2020109683D
:10223000C1F3C2224AF25201C0F60001895CC840D3
:1022400080BD000086B000200590049003900290AD
:10225000019041F20400C4F2020000680590059864
:1022600000F00C000146009100283FD0FFE70098E5
:10227000042804D0FFE70098082806D037E041F290
:102280000020C0F27A00019037E00598C0F3834146
:102290004AF25A00C0F60000405C02909DF8160019
:1022A000C007C0B1FFE741F20400C4F202000068B9
:1022B000C0F340414AF26A00C0F60000405C04905E
:1022C000029841F20021C0F27A0148430499B0FB20
:1022D000F1F0039007E0029840F60011C0F23D01D2
:1022E00048430390FFE70398019006E0FFE741F2BF
:1022F0000020C0F27A000190FFE7019806B0704715
:1023000080B586B00490049820B9FFE701208DF8CD
:1023100017002EE304980078C007002800F0AE8074
:10232000FFE741F20400C4F20200006800F00C0074
:10233000042813D0FFE741F20400C4F20200006851
:1023400000F00C0008281BD1FFE741F20400C4F2A2
:1023500002000068C003002812D5FFE741F2000028
:10236000C4F2020000688003002808D5FFE7049843
:10237000406820B9FFE701208DF81700F9E27CE002
:10238000FFE704984068B0F5803F09D1FFE741F2CC
:102390000001C4F20201086840F48030086032E0B5
:1023A0000498406868B9FFE741F20001C4F20201F5
:1023B000086820F480300860086820F480200860F5
:1023C00020E004984068B0F5A02F0DD1FFE741F25E
:1023D0000001C4F20201086840F480200860086827
:1023E00040F4803008600CE041F20001C4F20201C8
:1023F000086820F480300860086820F480200860B5
:10240000FFE7FFE7FFE7FFE704984068D0B1FFE789
:10241000FEF7B2FC0390FFE741F20000C4F20200B5
:102420000068800300280CD4FFE7FEF7A5FC0399A1
:10243000401A652804D3FFE703208DF8170098E2BF
:10244000EAE719E0FEF798FC0390FFE741F200008D
:10245000C4F202000068800300280CD5FFE7FEF7F5
:102460008BFC0399401A652804D3FFE703208DF8FD
:1024700017007EE2EAE7FFE7FFE7FFE7049800784E
:102480008007002840F18D80FFE741F20400C4F28C
:102490000200006810F00C0F13D0FFE741F20400B7
:1024A000C4F20200006800F00C00082829D1FFE700
:1024B00041F20400C4F202000068C003002820D4E6
:1024C000FFE741F20000C4F2020000688007002824
:1024D00009D5FFE704980069012804D0FFE701202F
:1024E0008DF8170045E241F20001C4F202010868CC
:1024F00020F0F800049A526940EAC2000860FFE741
:102500004EE00498006958B3FFE70021C4F242216D
:1025100001200860FEF730FC0390FFE741F2000065
:10252000C4F202000068800700280CD4FFE7FEF721
:1025300023FC0399401A032804D3FFE703208DF8F6
:10254000170016E2EAE741F20001C4F2020108684E
:1025500020F0F800049A526940EAC20008601EE0C8
:102560000021C4F2422100200860FEF705FC039020
:10257000FFE741F20000C4F2020000688007002873
:102580000CD5FFE7FEF7F8FB0399401A032804D3A4
:10259000FFE703208DF81700EBE1EAE7FFE7FFE72D
:1025A000FFE7049800780007002848D5FFE7049863
:1025B000806918B3FFE740F28041C4F24221012054
:1025C0000860FEF7D9FB0390FFE741F22400C4F254
:1025D00002000068800700280CD4FFE7FEF7CCFB60
:1025E0000399401A032804D3FFE703208DF817004E
:1025F000BFE1EAE7012003F0CDFF1FE040F2804198
:10260000C4F2422100200860FEF7B6FB0390FFE70A
:1026100041F22400C4F202000068800700280CD5B3
:10262000FFE7FEF7A9FB0399401A032804D3FFE74D
:1026300003208DF817009CE1EAE7FFE7FFE7049825
:1026400000784007002840F1D880FFE700208DF88F
:10265000070041F21C00C4F202000068C00000281C
:1026600013D4FFE7FFE741F21C00C4F20200016847
:1026700041F080510160006800F0805000900098A7
:10268000FFE701208DF80700FFE747F20000C4F2E2
:1026900000000068C005002822D4FFE747F20001CF
:1026A000C4F20001086840F480700860FEF764FB23
:1026B0000390FFE747F20000C4F200000068C00585
:1026C00000280CD4FFE7FEF757FB0399401A652852
:1026D00004D3FFE703208DF817004AE1EAE7FFE79C
:1026E000FFE70498C068012809D1FFE741F2200103
:1026F000C4F20201086840F00100086031E004986B
:10270000C06868B9FFE741F22001C4F2020108681D
:1027100020F001000860086820F0040008601FE055
:102720000498C06805280DD1FFE741F22001C4F2EA
:102730000201086840F004000860086840F00100E9
:1027400008600CE041F22001C4F20201086820F0A8
:1027500001000860086820F004000860FFE7FFE758
:10276000FFE7FFE70498C068E0B1FFE7FEF704FB6E
:102770000390FFE741F22000C4F2020000688007E6
:1027800000280ED4FFE7FEF7F7FA0399401A41F24A
:102790008931884204D3FFE703208DF81700E8E071
:1027A000E8E71BE0FEF7E8FA0390FFE741F22000BC
:1027B000C4F202000068800700280ED5FFE7FEF78C
:1027C000DBFA0399401A41F28931884204D3FFE7CA
:1027D00003208DF81700CCE0E8E7FFE79DF807003D
:1027E000012809D1FFE741F21C01C4F20201086887
:1027F00020F080500860FFE7FFE70498C0690028D8
:1028000000F0B380FFE741F20400C4F20200006868
:1028100000F00C00082800F08280FFE70498C069EF
:1028200002285CD1FFE76021C4F242210020086049
:10283000FEF7A2FA0390FFE741F20000C4F20200A3
:102840000068800100280CD5FFE7FEF795FA039990
:10285000401A032804D3FFE703208DF8170088E00F
:10286000EAE70498006AB0F5803F0CD1FFE741F237
:102870000401C4F20201086820F40030049A92684E
:1028800010430860FFE741F20401C4F20201086846
:1028900020F47410049B1A6A5B6A1A4310430860A0
:1028A0006021C4F2422101200860FEF765FA03901E
:1028B000FFE741F20000C4F2020000688001002836
:1028C0000CD4FFE7FEF758FA0399401A032804D303
:1028D000FFE703208DF817004BE0EAE71EE06021D8
:1028E000C4F2422100200860FEF746FA0390FFE799
:1028F00041F20000C4F202000068800100280CD5FB
:10290000FFE7FEF739FA0399401A032804D3FFE7DB
:1029100003208DF817002CE0EAE7FFE724E0049895
:10292000C069012804D1FFE701208DF8170020E0DD
:1029300041F20400C4F2020000680290029800F420
:1029400080300499096A884208D1FFE7029800F4B0
:1029500070100499496A884204D0FFE701208DF87D
:10296000170006E0FFE7FFE7FFE700208DF81700FC
:10297000FFE79DF8170006B080BD000080B582B06B
:102980000190019803F026FE02B080BD81B0009056
:1029900001B0704781B0009001B0704785B00390DE
:1029A0000291FFE7039890F83C00012804D1FFE76B
:1029B00002208DF813005BE00399012081F83C00B0
:1029C000FFE7FFE70399022081F83D0003980068C4
:1029D000406801900398006880680090019820F09A
:1029E00070000190029801680198084301900198D5
:1029F0000399096848600398006842F60041C4F2F0
:102A00000101884218D0FFE703980068B0F1804FB9
:102A100012D0FFE70398006840F20041C4F20001C1
:102A2000884209D0FFE70398006840F60001C4F22D
:102A3000000188420ED1FFE7009820F0800000904E
:102A4000029841680098084300900098039909682B
:102A50008860FFE70399012081F83D00FFE70399B3
:102A6000002081F83C00FFE700208DF81300FFE70D
:102A70009DF8130005B0704780B582B000900098B3
:102A800020B9FFE701208DF807003FE0009890F89B
:102A90003D0040B9FFE70099002081F83C00009814
:102AA00000F038F8FFE70099022081F83D00009916
:102AB00051F8040B03F0FCFD0099012081F8460059
:102AC000FFE70099012081F83E00009981F83F005E
:102AD000009981F84000009981F84100FFE7FFE785
:102AE0000099012081F84200009981F84300009983
:102AF00081F84400009981F84500FFE70099012022
:102B000081F83D0000208DF80700FFE79DF80700E1
:102B100002B080BD80B584B003900398006840F691
:102B20000001C4F20001884219D1FFE7FFE741F23A
:102B30001C00C4F20200016841F004010160006859
:102B400000F0040002900298FFE71E20019000228E
:102B50001146FFF7FFF90198FFF7F2F9FFE704B01C
:102B600080BD000083B00190019890F83D000128DD
:102B700004D0FFE701208DF80B0047E00199022007
:102B800081F83D0001980168C86840F00100C86004
:102B90000198006842F60041C4F20101884218D051
:102BA000FFE701980068B0F1804F12D0FFE701986D
:102BB000006840F20041C4F20001884209D0FFE7FA
:102BC0000198006840F60001C4F20001884212D169
:102BD000FFE701980068806800F007000090009807
:102BE000062807D0FFE701980168086840F0010057
:102BF0000860FFE706E001980168086840F00100FE
:102C00000860FFE700208DF80B00FFE79DF80B0040
:102C100003B0704780B586B00490039100208DF812
:102C20000B00FFE7049890F83C00012804D1FFE76F
:102C300002208DF81700ABE00499012081F83C00D8
:102C4000FFE7FFE70499022081F83D00049800683F
:102C500080680190019820F077000190019820F49D
:102C60007F40019001980499096888600398006882
:102C70000090002872D0FFE7009810286ED0FFE780
:102C8000009820286AD0FFE70098302866D0FFE738
:102C90000098402855D0FFE70098502837D0FFE72C
:102CA0000098602840D0FFE7009870280BD0FFE71D
:102CB0000098B0F5805F05D0FFE70098B0F5005FA1
:102CC00016D052E055E004980068039B5A68996852
:102CD000DB6803F08DFD049800688068019001981E
:102CE00040F077000190019804990968886040E0FD
:102CF00004980068039B5A689968DB6803F078FDC4
:102D000004980168886840F48040886031E0049845
:102D10000068039A5168D26803F026FF049800689F
:102D2000502103F07FFD24E004980068039A516865
:102D3000D26803F041FF04980068602103F072FD3F
:102D400017E004980068039A5168D26803F00CFFFA
:102D500004980068402103F065FD0AE004980068CB
:102D60000399096803F05EFD03E001208DF80B0074
:102D7000FFE70499012081F83D00FFE70499002056
:102D800081F83C00FFE79DF80B008DF81700FFE786
:102D90009DF8170006B080BD80B586B00490039101
:102DA000049820B9FFE701208DF8170084E004980B
:102DB00090F83D0040B9FFE70499002081F83C00FD
:102DC000049800F07DF8FFE70499022081F83D00A7
:102DD00004980168886844F2070290438860049967
:102DE00051F8040B03F064FC0498006880680290BA
:102DF000049800688069019004980068006A009057
:102E000003980168029808430290019840F2033148
:102E10008843019003998868896940EA01210198F3
:102E200008430190019840F60C41884301900198B5
:102E30004FF2F001884301900399C868C96940EADC
:102E4000012101980843019003990869096A00016A
:102E500040EA0131019808430190009820F02200D7
:102E6000009003994868496940EA011100980843B5
:102E7000009002980499096888600198049909688B
:102E8000886100980499096808620499012081F812
:102E90004600049981F83E00049981F83F000499A6
:102EA00081F84200049981F84300049981F83D00BB
:102EB00000208DF81700FFE79DF8170006B080BDD1
:102EC00080B58EB00D9000200C900B900A90099068
:102ED0000D98006842F60041C4F2010188422DD1EC
:102EE000FFE7FFE741F21800C4F20200016841F475
:102EF00000610160006800F4006008900898FFE736
:102F0000FFE741F21800C4F20200016841F0040139
:102F10000160006800F0040007900798FFE74FF495
:102F20004070099000200A9001200B9040F60000AC
:102F3000C4F2010009A9FDF75FFD41E00D980068AA
:102F4000B0F1804F3BD1FFE7FFE741F21C00C4F234
:102F50000200016841F001010160006800F0010019
:102F600006900698FFE7FFE741F21800C4F202005E
:102F7000016841F004010160006800F00400059060
:102F80000598FFE7012002900990002001900A9027
:102F90000B9040F60000C4F20100039009A90491CF
:102FA000FDF72AFD019B029A039804994FF0020C49
:102FB000CDF824C00A930B92FDF71EFDFFE7FFE753
:102FC0000EB080BD80B586B004900391049890F84F
:102FD0003E008DF80B00049890F83F008DF80A0031
:102FE000049890F842008DF80900049890F8430086
:102FF0008DF808000398B8B9FFE79DF80B00012889
:1030000005D1FFE79DF80900012804D0FFE7012062
:103010008DF8170079E00499022081F83E000499A8
:1030200081F84200FFE742E00398042817D1FFE748
:103030009DF80A00012805D1FFE79DF80800012846
:1030400004D0FFE701208DF817005EE0049902200C
:1030500081F83F00049981F84300FFE726E09DF8DE
:103060000B0001280FD1FFE79DF80A0001280AD1C3
:10307000FFE79DF80900012805D1FFE79DF808004A
:10308000012804D0FFE701208DF817003DE00499E6
:10309000022081F83E00049981F83F00049981F8EC
:1030A0004200049981F84300FFE7FFE7FFE7039838
:1030B000019020B1FFE70198042807D00DE00498A3
:1030C00000680021012203F077FB14E004980068F7
:1030D0000421012203F070FB0DE004980068002138
:1030E0000122009203F068FB009A04980068042112
:1030F00003F062FBFFE704980168086840F00100F4
:10310000086000208DF81700FFE79DF8170006B053
:1031100080BD000081B0009001B0704780B584B0E0
:10312000039003980068C0680290039800680069E3
:1031300001909DF804008007002824D5FFE79DF842
:103140000800800700281DD5FFE7039801686FF08D
:1031500002000861039901200877039800688069DC
:10316000800720B1FFE70398FFF7D4FF06E003983C
:1031700000F012F9039800F021FAFFE7039900200C
:103180000877FFE7FFE79DF804004007002825D5F2
:10319000FFE79DF80800400700281ED5FFE70398C9
:1031A00001686FF004000861039902200877039812
:1031B0000068806910F4407F04D0FFE70398FFF7B0
:1031C000A9FF06E0039800F0E7F8039800F0F6F98D
:1031D000FFE7039900200877FFE7FFE79DF8040069
:1031E0000007002824D5FFE79DF808000007002805
:1031F0001DD5FFE7039801686FF008000861039987
:103200000420087703980068C069800720B1FFE7B1
:103210000398FFF77FFF06E0039800F0BDF80398DE
:1032200000F0CCF9FFE7039900200877FFE7FFE7FC
:103230009DF80400C006002825D5FFE79DF808008A
:10324000C00600281ED5FFE7039801686FF0100044
:10325000086103990820087703980068C06910F492
:10326000407F04D0FFE70398FFF754FF06E0039880
:1032700000F092F8039800F0A1F9FFE7039900200D
:103280000877FFE7FFE79DF80400C00778B1FFE784
:103290009DF80800C00748B1FFE7039801686FF088
:1032A00001000861039800F03DFAFFE7FFE79DF891
:1032B00004000006002810D5FFE79DF8080000066E
:1032C000002809D5FFE7039801686FF080000861C6
:1032D0000398FFF75BFBFFE7FFE79DF8040040065C
:1032E000002810D5FFE79DF808004006002809D502
:1032F000FFE7039801686FF040000861039800F051
:103300003BFBFFE7FFE79DF804008006002810D58F
:10331000FFE79DF808008006002809D5FFE703981D
:1033200001686FF0200008610398FFF733FBFFE7A7
:10333000FFE704B080BD000080B586B00590002096
:1033400004900390029001900598006840F20041BB
:10335000C4F2000188421CD1FFE7FFE741F21800E8
:10336000C4F20200016841F004010160006800F04D
:10337000040000900098FFE7C02001900220029016
:10338000049040F60000C4F2010001A9FDF734FBEF
:10339000FFE706B080BD000081B0009001B070472B
:1033A00080B586B004900391029200208DF807004A
:1033B000FFE7049890F83C00012804D1FFE70220C1
:1033C0008DF8170089E00499012081F83C00FFE79F
:1033D000FFE7029800900C2800F270800099DFE867
:1033E00001F0076D6D6D206D6D6D3A6D6D6D530063
:1033F00004980068039903F02BFA0498016888691F
:1034000040F00800886104980168886920F0040091
:10341000886103980269049801688869104388618B
:1034200050E004980068039903F07AFA0498016860
:10343000886940F40060886104980168886920F414
:10344000806088610398026904980168886940EA8D
:103450000220886136E004980068039903F0CCFAF2
:1034600004980168C86940F00800C86104980168C0
:10347000C86920F00400C8610398026904980168D3
:10348000C8691043C8611DE004980068039903F0FF
:103490001FFB04980168C86940F40060C861049883
:1034A0000168C86920F48060C861039802690498C3
:1034B0000168C86940EA0220C86103E001208DF874
:1034C0000700FFE7FFE70499002081F83C00FFE7D1
:1034D0009DF807008DF81700FFE79DF8170006B06C
:1034E00080BD000080B582B00090009820B9FFE751
:1034F00001208DF807003FE0009890F83D0040B9AA
:10350000FFE70099002081F83C00009800F038F8AF
:10351000FFE70099022081F83D00009951F8040B63
:1035200003F0C6F80099012081F84600FFE70099F2
:10353000012081F83E00009981F83F00009981F850
:103540004000009981F84100FFE7FFE70099012062
:1035500081F84200009981F84300009981F8440005
:10356000009981F84500FFE70099012081F83D00AE
:1035700000208DF80700FFE79DF8070002B080BD2E
:1035800082B001900198006840F20041C4F200014D
:10359000884210D1FFE7FFE741F21C00C4F20200AD
:1035A000016841F002010160006800F00200009033
:1035B0000098FFE7FFE702B07047000081B000907D
:1035C00001B0704780B58AB008900791079828B974
:1035D000FFE7089890F83E0005901CE00798042843
:1035E00005D1FFE7089890F83F00049010E0079895
:1035F000082805D1FFE7089890F84000039004E000
:10360000089890F841000390FFE703980490FFE7C3
:1036100004980590FFE70598012804D0FFE70120F2
:103620008DF827007AE0079828B9FFE7089902206B
:1036300081F83E001EE00798042806D1FFE70899AC
:10364000022081F83F00029012E00798082806D176
:10365000FFE70899022081F84000019005E00899F1
:10366000022081F841000190FFE701980290FFE7F6
:103670000298FFE7089800680799012203F09CF878
:103680000898006842F60041C4F20101884207D15F
:10369000FFE708980168486C40F400404864FFE781
:1036A0000898006842F60041C4F20101884218D02F
:1036B000FFE708980068B0F1804F12D0FFE7089844
:1036C000006840F20041C4F20001884209D0FFE7DF
:1036D0000898006840F60001C4F20001884212D147
:1036E000FFE708980068806800F0070006900698D9
:1036F000062807D0FFE708980168086840F0010035
:103700000860FFE706E008980168086840F00100DB
:103710000860FFE700208DF82700FFE79DF82700ED
:103720000AB080BD80B584B003900398006840F66D
:103730000001C4F20001884240F01C81FFE740F222
:103740006A50C2F20000008802280DD1FFE740F263
:103750000001C2F200010020087040F26A51C2F27A
:10376000000101200880FFE740F20000C2F20000E3
:1037700090F9000001460291072800F2BA800299F0
:10378000DFE801F0040B878F979FA7AF40F2482135
:10379000C2F2000100200880ACE040F2CC40C2F24E
:1037A000000080680021C4F2A021FCF74EFE98B909
:1037B000FFE740F2CC40C2F2000080680021C4F272
:1037C000C821FCF75EFE38B9FFE740F2CA41C2F2F9
:1037D000000102200880FFE740F2CA40C2F2000068
:1037E000008802281FD1FFE740F2CC40C2F200005F
:1037F00080680021C4F22031FCF727FE98B9FFE76A
:1038000040F2CC40C2F2000080680021C4F248318E
:10381000FCF737FE38B9FFE740F2CA41C2F20001B7
:1038200003200880FFE740F26401C2F2000101209A
:10383000087040F2CC40C2F20000816840F24020A3
:10384000C2F200000160006840F23C21C2F20001B7
:10385000086004F0AFFF40F24850C2F2000001904F
:1038600080680021C4F27F31FCF780FC014601989A
:1038700040F23802C2F20002916080680021CCF26E
:103880007F31FCF773FC40F20C01C2F2000188604A
:1038900030E040F24821C2F200010888013008807F
:1038A00028E040F24A21C2F2000108880130088075
:1038B00020E040F24C21C2F200010888013008806B
:1038C00018E040F24E21C2F2000108880130088061
:1038D00010E040F25021C2F2000108880130088057
:1038E00008E040F25221C2F200010888013008804D
:1038F00000E0FFE740F26C51C2F2000108680130BD
:10390000086040F27450C2F200000088B0F5FA7FFF
:1039100008DAFFE740F27451C2F200010888013072
:103920000880FFE740F26C50C2F2000000680A28ED
:103930001FD1FFE740F26C51C2F200010020086085
:1039400040F20C00C2F2000005F0A4FD40F2380085
:10395000C2F2000005F09EFD40F26400C2F20000D9
:1039600002F0D8FD02F0A6FD03F0D4FC05F0D0FD76
:10397000FFE7FFE704B080BD81B0009001B0704761
:1039800082B00190ADF8021002B0704781B0009093
:1039900001B0704780B592B011901198006800682E
:1039A000109011980068C0680F90119800684069E5
:1039B0000E9000200D900C90109800F00F000D90CC
:1039C0000D9888B9FFE79DF84000800600280AD5C9
:1039D000FFE79DF83C008006002804D5FFE711981A
:1039E00003F082F9E9E1FFE70D98002800F0C280BA
:1039F000FFE79DF83800C00738B9FFE7BDF83C0085
:103A000010F4907F00F0B680FFE79DF84000C007FB
:103A100058B1FFE79DF83D00C00730B1FFE71199AD
:103A2000486C40F001004864FFE79DF84000400703
:103A300000280BD5FFE79DF83800C00730B1FFE73D
:103A40001199486C40F002004864FFE79DF840007F
:103A5000800700280BD5FFE79DF83800C00730B17C
:103A6000FFE71199486C40F004004864FFE79DF8B7
:103A700040000007002811D5FFE79DF83C008006B4
:103A8000002805D4FFE79DF83800C00730B1FFE7F4
:103A90001199486C40F008004864FFE71198406CA9
:103AA000002866D0FFE79DF84000800600280AD570
:103AB000FFE79DF83C008006002804D5FFE7119839
:103AC00003F012F9FFE7119800684069C0F3801015
:103AD0000C901198406C0007002804D4FFE70C9864
:103AE00000283ED0FFE7119803F0A0F81198006875
:103AF0004069400600282FD5FFE7FFE7FFE7119850
:103B0000006850E8050F20F040000B90FFE70B998C
:103B10001198026842E805100028F0D1FFE7FFE79E
:103B20001198C06B98B1FFE71198C16B46F60D4034
:103B3000C0F6000048631198C06BFCF7A5FE28B1E1
:103B4000FFE71198C06B416B8847FFE703E01198CE
:103B5000FFF71CFFFFE703E01198FFF717FFFFE7F0
:103B600006E01198FFF712FF119900204864FFE763
:103B7000FFE722E11198006B012840F0FE80FFE78B
:103B80009DF84000C006002840F1F780FFE79DF84F
:103B90003C00C006002840F1F080FFE7FFE700206E
:103BA0000A901198006800680A90119800684068AF
:103BB0000A900A98FFE711980068406940060028BB
:103BC00040F18180FFE71198C06B00684068ADF854
:103BD0002600BDF82600002874D0FFE7BDF82600B7
:103BE0001199898D88426DDAFFE7BDF82600119999
:103BF000C8851198C06B8069202858D0FFE7FFE77F
:103C0000FFE71198006850E8030F20F480700890D7
:103C1000FFE708991198026842E803100028F0D1E4
:103C2000FFE7FFE7FFE7FFE71198006850E8050F9F
:103C300020F001000790FFE707991198026842E819
:103C400005100028F0D1FFE7FFE7FFE7FFE7119835
:103C5000006850E8050F20F040000690FFE7069945
:103C60001198026842E805100028F0D1FFE7FFE74D
:103C70001199202081F84200119900200863FFE784
:103C8000FFE71198006850E8030F20F0100005903E
:103C9000FFE705991198026842E803100028F0D167
:103CA000FFE7FFE71198C06BFCF7B0FDFFE7119944
:103CB000022048631198818DC28D891A89B2FFF75D
:103CC0005FFEFFE779E01199888DC98D401AADF844
:103CD00012001198C08D00284ED0FFE7BDF81200E9
:103CE000002849D0FFE7FFE7FFE71198006850E898
:103CF000030F20F490700390FFE703991198026876
:103D000042E803100028F0D1FFE7FFE7FFE7FFE7F5
:103D10001198006850E8050F20F001000290FFE7BD
:103D200002991198026842E805100028F0D1FFE7D7
:103D3000FFE71199202081F84200119900200863C3
:103D4000FFE7FFE71198006850E8030F20F010002C
:103D50000190FFE701991198026842E803100028DA
:103D6000F0D1FFE7FFE71199022048631198BDF8F1
:103D70001210FFF705FEFFE71FE09DF84000000668
:103D800000280AD5FFE79DF83C000006002804D56E
:103D9000FFE7119803F0EEF80FE09DF840004006B1
:103DA00000280AD5FFE79DF83C004006002804D50E
:103DB000FFE7119802F084FFFFE712B080BD00001A
:103DC00080B582B00090009820B9FFE701208DF8FF
:103DD000070040E00098806908B1FFE700E0FFE7D6
:103DE000009890F8410040B9FFE70099002081F861
:103DF0004000009800F034F8FFE70099242081F893
:103E0000410000980168C86820F40050C86000981C
:103E100003F020F800980168086920F490400861D8
:103E200000980168486920F02A00486100980168FC
:103E3000C86840F40050C860009900204864009AA7
:103E4000202182F84110009A82F8421000994863BC
:103E50008DF80700FFE79DF8070002B080BD000065
:103E600080B592B01190002010900F900E900D90A0
:103E70001198006843F60001C4F20101884251D153
:103E8000FFE7FFE741F21800C4F20200016841F4C5
:103E900080410160006800F480400C900C98FFE7BE
:103EA000FFE741F21800C4F20200016841F0080186
:103EB0000160006800F008000B900B98FFE74020BD
:103EC0000D9002200E900320109040F60040C4F2A6
:103ED000010006900DA90791FCF78EFD0698079941
:103EE00080220D9200220E920F92FCF785FDFFE7D3
:103EF0000421C4F2010108680A900A9840F0E060C9
:103F00000A900A9840F004000A900A980860FFE7B7
:103F10002520059000221146FEF71CF80598FEF7B3
:103F20000FF84AE01198006844F20041C4F2000121
:103F3000884241D1FFE7FFE741F21C00C4F20200D2
:103F4000016841F400310160006800F4003009901C
:103F50000998FFE7FFE741F21800C4F20200016888
:103F600041F004010160006800F004000890089826
:103F7000FFE704200D9002200E900320109040F6E1
:103F80000000C4F2010001900DA90291FCF734FD7C
:103F90000198029908220D92002203920E920F922C
:103FA000FCF72AFD039A262004901146FDF7D2FF64
:103FB0000498FDF7C5FFFFE7FFE712B080BD0000E2
:103FC00080B584B002900191ADF80220029890F87B
:103FD0004200202817D1FFE7019820B1FFE7BDF884
:103FE000020020B9FFE701208DF80F000FE00299D1
:103FF0000020086302980199BDF8022002F088FFB2
:104000008DF80F0003E002208DF80F00FFE79DF808
:104010000F0004B080BD000080B582B0019001980F
:10402000006843F60001C4F20101884240F0A48018
:10403000FFE740F2E451C2F2000108680130086075
:1040400040F29850C2F20000007810BBFFE740F247
:104050009950C2F200000078552812D1FFE740F2D3
:104060009950C2F20000007840F29853C2F2000367
:104070001A78511C197040F2B941C2F200018854FB
:1040800006E040F29851C2F2000100200870FFE7FC
:1040900066E040F29850C2F200000078012822D178
:1040A000FFE740F29950C2F200000078532812D185
:1040B000FFE740F29950C2F20000007840F29853B6
:1040C000C2F200031A78511C197040F2B941C2F2D1
:1040D0000001885406E040F29851C2F2000100202D
:1040E0000870FFE73BE040F29850C2F20000007811
:1040F0000A2821D1FFE740F29950C2F2000001786E
:1041000040F29850C2F20000027840F2B940C2F288
:1041100000008154FCF74EFB38B1FFE740F2B94094
:10412000C2F2000001F02EFFFFE740F29851C2F208
:1041300000010020087011E040F29950C2F2000026
:10414000007840F29853C2F200031A78511C19709B
:1041500040F2B941C2F200018854FFE7FFE7FFE7F0
:1041600040F22840C2F2000040F29951C2F2000130
:104170000122FFF725FFFFE70198006844F20041A4
:10418000C4F2000188423CD1FFE740F2CA40C2F2CB
:1041900000000088032828D1FFE740F20000C2F2A7
:1041A000000090F9000001281FD1FFE740F2CC4049
:1041B000C2F2000080680021C4F24831FCF761F9C6
:1041C00098B9FFE740F2CC40C2F2000080680021BD
:1041D000C4F22031FCF739F938B9FFE740F20001A9
:1041E000C2F2000108200870FFE740F27040C2F2FE
:1041F000000040F2D951C2F200010322FFF7E0FEB5
:10420000FFE702B080BD000084B002900191ADF8DC
:104210000220029890F84100202826D1FFE701985B
:1042200020B1FFE7BDF8020020B9FFE701208DF8BB
:104230000F001EE0019802990862BDF80200029981
:104240008884BDF802000299C8840299002048645D
:10425000029A212182F8411002990A68D16841F03E
:104260008001D1608DF80F0003E002208DF80F006F
:10427000FFE79DF80F0004B07047000081B0009088
:1042800001B07047FFE7FEE780B540F26020C2F260
:104290000000FCF783FD80BD80B540F26020C2F2D3
:1042A0000000FCF73FFE80BD80B540F2B420C2F2B2
:1042B0000000FCF773FD80BD80B540F2B420C2F26F
:1042C0000000FCF72FFE80BD81B000900098C06A0E
:1042D000B0F52A0F04D1FFE700990120C8620BE076
:1042E0000098C06AB0F12A4F04D1FFE70099082076
:1042F000C86200E0FFE7FFE701B0704780B584B017
:104300000390002002900398406A0190019890F871
:104310003D008DF8030040F20400C2F20000006886
:1043200048F21F51C5F2EB11A0FB0110C00844F682
:10433000D351C1F26201A0FB01108009232148433F
:104340000290FFE7029830B9FFE70199086C40F04E
:10435000200008640CE0029801380290FFE7019801
:104360000068006800F40070B0F5007FEAD0FFE755
:104370000198406B28B1FFE70198416B00208862EB
:10438000FFE70198806B28B1FFE70198816B00205F
:104390008862FFE701980168086820F4806008607F
:1043A0000199002048850198406B28B1FFE70198EA
:1043B000416B00204863FFE70198806B28B1FFE75D
:1043C0000198816B00204863FFE701980168086845
:1043D00020F001000860019890F83D0060280ED19F
:1043E000FFE70199202081F83D000199002081F824
:1043F0003E00019908640198FCF7C4FC27E09DF891
:10440000030000F02800282814D1FFE70198016874
:10441000086840F00100086001980168086840F4ED
:10442000806008600199002008630199282081F8C4
:104430003D0008E00199202081F83D00019900200D
:1044400081F83E00FFE70198FCF752FFFFE704B058
:1044500080BD000081B00090009800684069C1B242
:104460000020B0EBD11F05D0FFE7009801680020C5
:104470000861FFE701B0704780B584B003900398EE
:1044800090F83D008DF80B00039890F83E008DF8F1
:104490000A009DF80A00102805D0FFE79DF80A00E1
:1044A00040280CD1FFE79DF80B00222807D1FFE739
:1044B00003980168086820F400600860FFE79DF831
:1044C0000B0000F02800282808D1FFE703990020FE
:1044D00008630399282081F83D001AE003980068DA
:1044E000406800F40060B0F5006F0ED0FFE79DF863
:1044F0000B00602809D0FFE70399202081F83D00D8
:104500000399002081F83E00FFE70399002008632B
:10451000FFE7039800684068000500285DD5FFE7C5
:1045200003980168486820F4006048600398406B75
:1045300090F8210001281DD0FFE70398416B44F259
:10454000FD20C0F6000048630398406BFCF79CF91F
:1045500078B1FFE703980168086820F0010008605F
:104560000399202081F83D000398406B416B8847F8
:10457000FFE731E00398816B44F2FD20C0F60000B4
:1045800048630398806BFCF77FF920B3FFE703983B
:104590000068406900F040010120B0EB911F0BD191
:1045A000FFE70398006800690399496A0870039956
:1045B000486A01304862FFE703980168086820F004
:1045C000010008600399202081F83D000398806B6A
:1045D000416B8847FFE7FFE745E0039890F83D000F
:1045E000602826D1FFE70399202081F83D00039938
:1045F0000020086403980068406900F04001012031
:10460000B0EB911F0BD1FFE7039800680069039995
:10461000496A08700399486A01304862FFE70398C5
:104620000168086820F0010008600398FCF7AAFB05
:1046300018E003980068406900F040010120B0EBE9
:10464000911F0BD1FFE70398006800690399496A3D
:1046500008700399486A01304862FFE70398FCF745
:1046600047FEFFE7FFE70398006C0190019800F018
:104670000100012812D0FFE7019800F00200022893
:104680000CD0FFE7019800F00400042806D0FFE7F3
:104690009DF804000007002807D5FFE7039801688C
:1046A000486820F4E0604860FFE7039890F83D0018
:1046B0008DF80B000398006C4007002818D5FFE721
:1046C0009DF80B00282813D1FFE703990020CFF6AF
:1046D000FF70C862039900200863039A202182F8C2
:1046E0003D10039981F83E000398FCF757FFFFE760
:1046F00004B080BD82B0009000980068406900F46A
:1047000080610120B0EB912F1ED1FFE70098016876
:104710006FF480604861009900200863009A2021AE
:1047200082F83D10009981F83E000099086C40F035
:1047300004000864FFE70099002081F83C00FFE7CF
:1047400001208DF8070003E000208DF80700FFE747
:104750009DF8070002B0704780B582B001900198C3
:10476000C06A00900198408D042815D1FFE7019898
:104770000168486820F4806048600198006800691A
:104780000199496A08700199486A013048620199A3
:10479000488D01384885B3E00198408D032824D125
:1047A000FFE701980168486820F48060486000983D
:1047B00004280BD0FFE70098022807D0FFE70198F4
:1047C0000168086820F480600860FFE701980068CD
:1047D00000690199496A08700199486A0130486284
:1047E0000199488D0138488589E00198408D02285B
:1047F00075D1FFE70098012804D0FFE70098102842
:1048000007D1FFE701980168086820F4806008601C
:1048100016E00098042804D0FFE70098022807D18A
:10482000FFE701980168086840F48060086006E0CE
:1048300001980168086840F400700860FFE7FFE72E
:104840000198006800690199496A08700199486AED
:10485000013048620199488D013848850198006807
:1048600000690199496A08700199486A01304862F3
:104870000199488D0138488501980168486820F4FD
:10488000407048600199202081F83D00019890F81F
:104890003E0040280AD1FFE70199002081F83E0040
:1048A000019908630198FCF785FE17E00199002043
:1048B00081F83E000098082804D0FFE700982028DF
:1048C00004D1FFE701990020086303E00199122059
:1048D0000863FFE70198FCF765FEFFE70EE001982B
:1048E000006800690199496A08700199486A0130B5
:1048F00048620199488D01384885FFE7FFE7FFE7E7
:1049000002B080BD80B584B00390039890F83D005C
:10491000222840F0AA80FFE70398C06A019003981C
:10492000408D0290029804281BD3FFE7039800688B
:1049300000690399496A08700399486A013048621E
:104940000399488D013848850398408D032807D185
:10495000FFE703980168486820F480604860FFE73B
:1049600082E00398C06A022876D0FFE70298012807
:1049700004D0FFE7029800286ED1FFE7039801F00A
:1049800071FA002847D1FFE703980168086820F40E
:104990008060086003980168486820F4E06048601F
:1049A0000398006800690399496A08700399486A86
:1049B000013048620399488D0138488503992020C9
:1049C00081F83D00039890F83E0040280AD1FFE7A7
:1049D0000399002081F83E00039908630398FCF7CF
:1049E000E9FD17E00399002081F83E0001980828AE
:1049F00004D0FFE70198202804D1FFE703990020A5
:104A0000086303E0039912200863FFE70398FCF7AB
:104A1000C9FDFFE71FE003980168486820F4E060E3
:104A200048600398006800690399496A087003990F
:104A3000486A013048620399488D013848850399D6
:104A4000202081F83D000399002081F83E00039862
:104A5000FCF74EFCFFE706E003980168486820F485
:104A600080604860FFE7FFE7FFE704B080BD00001B
:104A700080B582B001900198C06A0090019890F8CA
:104A80003D00212860D1FFE70198408D70B1FFE71C
:104A900001980168406A007808610199486A01300C
:104AA00048620199488D013848854CE000980828F3
:104AB0001ED0FFE7009820281AD0FFE7009810F5D5
:104AC000803F15D0FFE701980168486820F4E06056
:104AD00048600199112008630199002081F83E0087
:104AE0000199202081F83D000198FCF75FFD29E045
:104AF00001980168486820F4E06048600198016806
:104B0000086840F40070086001990020086301996A
:104B1000202081F83D00019890F83E00402808D1FF
:104B2000FFE70199002081F83E000198FCF746FD5F
:104B300007E00199002081F83E000198FCF736FD5E
:104B4000FFE7FFE7FFE700E0FFE702B080BD0000FE
:104B500080B584B00390039890F83D008DF80B0069
:104B6000039890F83E008DF80A000398C06A0190FF
:104B70000398008D002852D1FFE79DF80B002128F3
:104B80004DD1FFE7019808281ED0FFE701982028A3
:104B90001AD0FFE7019810F5803F15D0FFE7039882
:104BA0000168486820F4E0604860039911200863B8
:104BB0000399002081F83E000399202081F83D00F0
:104BC0000398FCF7F3FC29E003980168486820F497
:104BD000E060486003980168086840F4007008606D
:104BE0000399002008630399202081F83D00039871
:104BF00090F83E00402808D1FFE70399002081F893
:104C00003E000398FCF7DAFC07E00399002081F8E6
:104C10003E000398FCF7CAFCFFE7FFE735E09DF88C
:104C20000B0021280AD0FFE79DF80A0040282AD16E
:104C3000FFE79DF80B00222825D1FFE70398408D60
:104C400038B9FFE703980168486820F4806048603D
:104C500018E0039890F83E00402804D1FFE703983D
:104C600000F05EFA0DE003980168406A0078086180
:104C70000399486A013048620399488D0138488594
:104C8000FFE7FFE700E0FFE7FFE704B080BD0000BB
:104C900081B000900098406CC0B20099096808612A
:104CA0000098406B28B1FFE70098406B806A48B9D4
:104CB000FFE70098806B60B1FFE70098806B806A27
:104CC00038B1FFE700980168486840F40060486028
:104CD000FFE701B0704700008FB00E900E9890F87B
:104CE0003E008DF837000E98C06A0C900E98006B4D
:104CF0000B900E9890F83D00222840F08981FFE744
:104D00000E98006D98B9FFE79DF8370040280ED146
:104D1000FFE7FFE700200A900E98006840690A90BC
:104D20000E98006880690A900A98FFE76FE10E9874
:104D3000006DF0B9FFE70E980069B0F5404F18D14B
:104D4000FFE7FFE7002009900E980068406909908E
:104D50000E980068806909900998FFE70E9801682D
:104D6000086840F4807008600E99086D013008658D
:104D70004CE10E98408DA0B9FFE7FFE700200890B6
:104D80000E980068406908900E9800688069089045
:104D90000898FFE70E980168086840F40070086002
:104DA00030E10E98408D012840F09080FFE70C988C
:104DB00010F5803F36D1FFE70E980168086820F4AF
:104DC000806008600E98006840680005002814D5CF
:104DD000FFE70E980168086820F480600860FFE72C
:104DE000002007900E980068406907900E980068B0
:104DF000806907900798FFE713E0FFE7002006901F
:104E00000E980068406906900E98006880690690C8
:104E10000698FFE70E980168086840F40070086083
:104E2000FFE752E00C98082834D0FFE70C982028C0
:104E300030D0FFE70B98122804D1FFE70C98012827
:104E400028D1FFE70C9804280FD0FFE70C98022820
:104E50000BD0FFE70C98102807D0FFE70E980168E9
:104E6000086820F48060086006E00E980168086811
:104E700040F480600860FFE7FFE7002005900E988F
:104E80000068406905900E98006880690590059853
:104E9000FFE719E00E980168086820F48060086058
:104EA000FFE7002004900E980068406904900E9877
:104EB0000068806904900498FFE70E98016808680C
:104EC00040F400700860FFE7FFE79AE00E98408D1D
:104ED00002285ED1FFE70C98042822D0FFE70C9847
:104EE00002281ED0FFE70C9810281AD0FFE70E9872
:104EF0000168086840F400600860FFE70020039044
:104F00000E980068406903900E98006880690390CD
:104F10000398FFE70E980168086820F48060086035
:104F200013E00E980168086840F480600860FFE7AD
:104F3000002002900E980068406902900E98006868
:104F4000806902900298FFE7FFE70E9800684068CA
:104F5000000500281CD5FFE70C9810F5803F10D005
:104F6000FFE70C9801280CD0FFE70C98082808D020
:104F7000FFE70C98102804D0FFE70C98202807D1F1
:104F8000FFE70E980168486840F480504860FFE7EA
:104F900036E00E980168086840F4806008600E985A
:104FA00000684068000500281CD5FFE70C9810F544
:104FB000803F10D0FFE70C9801280CD0FFE70C9839
:104FC000082808D0FFE70C98102804D0FFE70C98B9
:104FD000202807D1FFE70E980168486840F4805008
:104FE0004860FFE7FFE7002001900E9800684069E5
:104FF00001900E980068806901900198FFE7FFE733
:10500000FFE7FFE70E9900200865FFE7FFE70DE0E7
:10501000FFE7002000900E980068406900900E980D
:105020000068806900900098FFE7FFE70FB07047C5
:1050300081B00090009890F83E00402816D1FFE71C
:105040000098006D40B9FFE70098406C00F0FE004A
:1050500000990968086108E00098406C40F0010080
:10506000C0B2009909680861FFE757E0009800693D
:10507000B0F5804F31D1FFE7009890F83D0021282E
:1050800008D1FFE70098406C00F0FE000099096825
:10509000086108E00098406C40F00100C0B200993F
:1050A00009680861FFE70098406B28B1FFE70098A6
:1050B000406B806A48B9FFE70098806B60B1FFE7FA
:1050C0000098806B806A38B1FFE7009801684868F3
:1050D00040F400604860FFE71FE00098006D50B9A1
:1050E000FFE70098406C00F44070C009F030009970
:1050F0000968086110E00098006D01280AD1FFE7F7
:105100000098406C00F44070C009F13000990968C3
:10511000086100E0FFE7FFE7FFE7FFE701B0704746
:1051200080B582B00190019890F83D008DF80300A1
:105130000198006DE8B9FFE70198C06C01280BD118
:10514000FFE70198806CC0B2019909680861019974
:10515000086D023008650BE00198806C80B2000A8F
:105160000199096808610199086D01300865FFE738
:1051700068E00198006D01280BD1FFE70198806C71
:10518000C0B20199096808610199086D013008658C
:1051900057E00198006D02284ED1FFE79DF803000B
:1051A00022280BD1FFE701980168086840F480705D
:1051B00008600199086D013008653CE00198408D58
:1051C00098B1FFE79DF8030021280ED1FFE7019871
:1051D0000168406A007808610199486A01304862B4
:1051E0000199488D0138488524E00198408DF8B92F
:1051F000FFE79DF8030021281AD1FFE70198016815
:10520000486820F4E060486001980168086840F44C
:1052100000700860019900200863019A202182F83B
:105220003D10019981F83E000198FCF7C7F900E0B4
:10523000FFE7FFE7FFE703E00198FFF70BF9FFE760
:10524000FFE7FFE702B080BD80B586B0DDF824C07F
:10525000DDF820C00490ADF80E10ADF80C20ADF8CC
:105260000A3004980168086840F480600860049877
:105270000168086840F4807008600498089B0999E8
:105280006A4611604FF00111002200F04FFC80B11E
:10529000FFE7049800680068C005002805D5FFE70F
:1052A00004994FF400700864FFE703208DF817009D
:1052B000B7E0BDF80E0000F0FE000499096808612F
:1052C0000498089A099B0221C0F2010100F0B2FC87
:1052D00020B1FFE701208DF81700A2E0FFE70020D2
:1052E0000190049800684069019004980068806902
:1052F00001900198FFE704980899099A00F0EEFDE3
:1053000080B1FFE70498006C042807D1FFE70498F8
:105310000168086840F400700860FFE701208DF81C
:1053200017007EE0BDF80A00012806D1FFE79DF8CE
:105330000C0004990968086121E09DF80D000499AA
:105340000968086104980899099A00F0C7FD80B1BE
:10535000FFE70498006C042807D1FFE70498016870
:10536000086840F400700860FFE701208DF817001E
:1053700057E09DF80C00049909680861FFE704985C
:105380000899099A00F0AAFD80B1FFE70498006C23
:10539000042807D1FFE704980168086840F400700A
:1053A0000860FFE701208DF817003AE004980168D3
:1053B000086840F4807008600498089B09996A4660
:1053C00011604FF00111002200F0B0FB80B1FFE747
:1053D000049800680068C005002805D5FFE7049917
:1053E0004FF400700864FFE703208DF8170018E001
:1053F0009DF80E0040F001000499096808610498C6
:10540000089A099B0221C0F2010100F013FC20B1AF
:10541000FFE701208DF8170003E000208DF817004A
:10542000FFE79DF8170006B080BD000080B586B08C
:10543000DDF824C0DDF820C00490ADF80E10ADF802
:105440000C20ADF80A3004980168086840F48070B8
:1054500008600498089B09996A4611604FF0011191
:10546000002200F063FB80B1FFE704980068006849
:10547000C005002805D5FFE704994FF400700864C3
:10548000FFE703208DF8170069E0BDF80E0000F07B
:10549000FE000499096808610498089A099B022192
:1054A000C0F2010100F0C6FB20B1FFE701208DF83A
:1054B000170054E0FFE7002001900498006840695D
:1054C000019004980068806901900198FFE70498B2
:1054D0000899099A00F002FD80B1FFE70498006C7A
:1054E000042807D1FFE704980168086840F40070B9
:1054F0000860FFE701208DF8170030E0BDF80A00D2
:10550000012806D1FFE79DF80C000499096808619D
:1055100021E09DF80D000499096808610498089934
:10552000099A00F0DBFC80B1FFE70498006C0428C6
:1055300007D1FFE704980168086840F4007008602C
:10554000FFE701208DF8170009E09DF80C00049991
:1055500009680861FFE700208DF81700FFE79DF854
:10556000170006B080BD000081B000900098408D0B
:1055700078B1FFE70098006800690099496A0870EF
:105580000099486A013048620099488D0138488581
:10559000FFE701B07047000080B582B0019001982C
:1055A00090F83D008DF803000198408D48B3FFE767
:1055B0000198006800690199496A08700199486A70
:1055C000013048620199488D013848850198408D25
:1055D000B0B9FFE79DF803002A2811D1FFE7019831
:1055E0000168486820F480604860019922200863BF
:1055F0000199282081F83D000198FCF70DFCFFE798
:10560000FFE702B080BD000081B000900098408D9F
:1056100070B1FFE700980168406A0078086100995E
:10562000486A013048620099488D01384885FFE793
:1056300001B0704780B582B00190019890F83D00AC
:105640008DF803000198408D40B3FFE70198016891
:10565000406A007808610199486A013048620199FE
:10566000488D013848850198408DB0B9FFE79DF815
:105670000300292811D1FFE701980168486820F448
:10568000806048600199212008630199282081F8F1
:105690003D000198FCF7C4FBFFE7FFE702B080BDC7
:1056A00080B584B00390029100208DF80700039824
:1056B00090F83D0000F02800282832D1FFE7039839
:1056C0000168486820F4806048609DF8080000F098
:1056D00004010020B0EB910F04D1FFE701208DF809
:1056E0000700FFE79DF808100020B0EBD11F05D19F
:1056F000FFE70398C068ADF8040004E003988069F0
:10570000ADF80400FFE7FFE70399002081F83C00B3
:10571000FFE703989DF80710BDF80420FBF736FB60
:1057200013E0FFE7002000900398006840690090B4
:1057300003980068806900900098FFE7FFE70399ED
:10574000002081F83C00FFE7FFE704B080BD0000C7
:1057500080B584B00390039890F83D008DF80B005D
:105760000398C06A01900198082804D0FFE70198C7
:10577000202829D1FFE79DF80B00282824D1FFE736
:1057800003990020CFF6FF70C8620398016848684B
:1057900020F4E0604860039801686FF4806048611D
:1057A00003980168086820F480600860039900206D
:1057B0000863039A202182F83D10039981F83E0086
:1057C0000398FBF7EBFE33E09DF80B00212828D16E
:1057D000FFE703990020CFF6FF70C86203992120EC
:1057E00008630399202081F83D000399002081F887
:1057F0003E0003980168486820F4E0604860039820
:1058000001686FF48060486103980168086820F4BB
:10581000806008600398FEF71DFE0398FCF700FB0C
:1058200005E0039801686FF480604861FFE7FFE7D7
:1058300004B080BD80B584B00390039890F83D001B
:105840008DF80B0003980168486820F4E060486018
:10585000FFE70020019003980068406901900398D9
:105860000168086840F0010008600198FFE70398AC
:105870000168086820F48060086003980068406848
:10588000000500286DD5FFE79DF80B00222805D004
:10589000FFE79DF80B002A2831D1FFE70398806BC2
:1058A00000684068039948850398408D30B1FFE750
:1058B0000399086C40F004000864FFE7039801684E
:1058C000486820F4006048600398806BFBF76AF832
:1058D000012813D0FFE70398816B44F2FD20C0F646
:1058E000000048630398806BFAF7CEFF28B1FFE70A
:1058F0000398806B416B8847FFE7FFE730E0039830
:10590000406B00684068039948850398408D30B12A
:10591000FFE70399086C40F004000864FFE7039870
:105920000168486820F4006048600398406BFBF70A
:1059300039F8012813D0FFE70398416B44F2FD20AA
:10594000C0F6000048630398406BFAF79DFF28B14A
:10595000FFE70398406B416B8847FFE7FFE7FFE7EE
:10596000FFE70398408DE8B3FFE7039800684069BC
:1059700000F004010120B0EB910F0FD1FFE7039875
:10598000006800690399496A08700399486A013000
:1059900048620399488D01384885FFE703980068FD
:1059A000406900F040010120B0EB911F0FD1FFE7EB
:1059B0000398006800690399496A08700399486A66
:1059C000013048620399488D01384885FFE7039804
:1059D000408D30B1FFE70399086C40F00400086483
:1059E000FFE7FFE70398006C20B1FFE70398FEF79D
:1059F00043FD42E09DF80B002A280BD1FFE70399F5
:105A0000002008630399282081F83D000398FCF7E3
:105A100003FAFFE7039890F83D00282813D1FFE729
:105A200003990020CFF6FF70C86203990020086335
:105A3000039A202182F83D10039981F83E000398D3
:105A4000FBF7ACFD18E00398006B222805D0FFE7B8
:105A50009DF80B0022280ED1FFE703990020086370
:105A6000039A202182F83D10039981F83E000398A3
:105A7000FCF7D2F9FFE7FFE7FFE704B080BD0000C5
:105A800080B584B0029001910092FFE7029800680F
:105A9000406900F004010020B0EB910F3ED1FFE718
:105AA0000298FEF727FE20B1FFE701208DF80F00D6
:105AB00038E00198013080B3FFE7FBF75DF900990A
:105AC000401A0199884203D8FFE7019820BBFFE7FD
:105AD00002980068406900F004010020B0EB910FCB
